:100000000C9472000C9493000C9493000C94930045
:100010000C9493000C9493000C9493000C94930014
:100020000C9493000C9493000C9493000C94930004
:100030000C9493000C9493000C9493000C949300F4
:100040000C9493000C9493000C9493000C949300E4
:100050000C9493000C9493000C9493000C949300D4
:100060000C9493000C9493000C9493000C949300C4
:100070000C9493000C9493000C9493000C949300B4
:100080000C9493000C9493000C9493000C949300A4
:100090000C9493000C9493000C9493000C94930094
:1000A0000C9493000C9493000C9493000C94930084
:1000B0000C9493000C9493000C9493000C94930074
:1000C0000C9493000C9493000C9493000C94930064
:1000D0000C9493000C9493000C9493000C94930054
:1000E0000C94930011241FBECFEFD1E2DEBFCDBF31
:1000F00000E00CBF12E0A0E0B2E0E6E0F5E000E0D6
:100100000BBF02C007900D92A031B107D9F712E0E2
:10011000A0E1B2E001C01D92AC31B107E1F70E944D
:1001200047020C9481020C94000087B1876F87B955
:1001300088B1887088B9089586E69EE00197F1F746
:1001400000004098419880E388B9429AEFEFF7E4C5
:100150003197F1F700C000004298E6E6FEE03197E3
:10016000F1F700004098419888B9429AEFEFF7E420
:100170003197F1F700C000004298E6E6FEE03197C3
:10018000F1F700004098419888B9429A8FEF97E4C0
:100190000197F1F700C000004298E6E6FEE03197D3
:1001A000F1F700004098419880E288B9429A8FEFB9
:1001B00097E40197F1F700C000004298089598B1C4
:1001C0009F7098B998B1282F207F922B98B94098AA
:1001D0004198429AEFEFF7E43197F1F700C0000041
:1001E000429898B19F7098B998B18295807F892B79
:1001F00088B940984198429A8FEF97E40197F1F7B8
:1002000000C00000429808950E949C0086E69EE08F
:100210000197F1F7000088E20E94DF0081E00E9470
:10022000DF0086E00E94DF008EE00E94DF0080E8B1
:100230000E94DF00089580E80E94DF000895823068
:1002400079F0833018F48130C9F405C0833069F047
:100250008430A1F40FC0862F81580E94DF000895DA
:10026000862F81540E94DF000895862F8D560E94AC
:10027000DF000895862F8D520E94DF00089581E0EF
:100280000E94DF000895CF93C42F0E941F0188B100
:100290008F7088B988B19C2F907F892B88B9409A3C
:1002A0004198429A8FEF97E40197F1F700C0000060
:1002B000429888B18F7088B988B1C295C07FC82B29
:1002C000C8B9409A4198429A8FEF97E40197F1F7A5
:1002D00000C000004298CF9108950F931F93CF93D1
:1002E000DF93D82FC62FFA014081442369F08F0194
:1002F0000F5F1F4F8D2F6C2F0E944301CF5FF801BE
:1003000041918F014423B1F7DF91CF911F910F915C
:100310000895EF92FF920F931F93CF93DF93D82FFF
:10032000C62F7A0189010E941F01FF205CF4F0941E
:10033000E194F108F3948D2F6C2F40E052E00E947D
:100340006D01CF5FDD2311F0CC2319F40E941B0156
:1003500004C08D2F6C2F0E941F010530110591F4F0
:10036000C70160E177E20E946E02AB01405D5F4F22
:1003700050931102409310028D2F6C2F0E94430165
:10038000CF5F03C004301105E1F4C70168EE73E0EC
:100390000E946E02CB0170931302609312026AE016
:1003A00070E00E945A02AC01405D5F4F50931B0207
:1003B00040931A028D2F6C2F0E944301CF5F81E082
:1003C00001C080E00330110511F08130D9F4C7017C
:1003D00064E670E00E946E02CB017093130260939A
:1003E00012026AE070E00E945A02AC01405D5F4F69
:1003F00050931702409316028D2F6C2F0E944301D9
:10040000CF5F81E00230110511F08130D9F42AE08C
:1004100030E0C701B9010E946E02CB017093130254
:1004200060931202B9010E945A02AC01405D5F4F15
:1004300050931502409314028D2F6C2F0E9443019C
:10044000CF5F81E00130110511F0813089F4C701DF
:100450006AE070E00E946E02AC01405D5F4F509315
:100460001902409318028D2F6C2F0E944301CF5F19
:10047000063011052CF08D2F6C2F45E40E944301AE
:10048000DF91CF911F910F91FF90EF9008950E94FF
:1004900095000E940401C2E0D2E00BE012E081E08E
:1004A00064E0AE010E946D0182E061E0A8010E945B
:1004B0006D01F5CFAA1BBB1B51E107C0AA1FBB1FD3
:1004C000A617B70710F0A61BB70B881F991F5A95E0
:1004D000A9F780959095BC01CD01089597FB092E51
:1004E00007260AD077FD04D0E5DF06D000201AF4F5
:1004F000709561957F4F0895F6F7909581959F4F80
:060500000895F894FFCFFE
:100506002D0057454C434F4D45530052444C000077
:00000001FF
