:100000000C9472000C9493000C9493000C94930045
:100010000C9493000C9493000C9493000C94930014
:100020000C9493000C9493000C9493000C94930004
:100030000C9493000C9493000C9493000C949300F4
:100040000C9493000C9493000C9493000C949300E4
:100050000C9493000C9493000C9493000C949300D4
:100060000C9493000C9493000C9493000C949300C4
:100070000C9493000C9493000C9493000C949300B4
:100080000C9493000C9493000C9493000C949300A4
:100090000C9493000C9493000C9493000C94930094
:1000A0000C9493000C9493000C9493000C94930084
:1000B0000C9493000C9493000C9493000C94930074
:1000C0000C9493000C9493000C9493000C94930064
:1000D0000C9493000C9493000C9493000C94930054
:1000E0000C94930011241FBECFEFD1E2DEBFCDBF31
:1000F00000E00CBF12E0A0E0B2E0E8E7F5E000E0CD
:100100000BBF02C007900D92A230B107D9F712E0E1
:10011000A2E0B2E001C01D92AE30B107E1F70E944B
:10012000D3000C94BA020C94000010BA109207018C
:100130000895EAE7F0E0108210927B0080E280935D
:100140007C0086E8808380E880BF0895883018F0BE
:1001500098E090937B008770806280937C00EAE750
:10016000F0E0808180648083808184FFFDCF809176
:100170007900EAE7F0E090819061908310927B0033
:100180000895CF93DF93D82FC62F842F0E94A60007
:10019000482F8D2F6C2F50E023E030E00E94D501D6
:1001A000DF91CF9108950E94E1000E9450010E94CA
:1001B00095000E94990081E061E043E00E94C10047
:1001C000FACF87B1876F87B988B1887088B90895E9
:1001D00086E69EE00197F1F700004098419880E3A1
:1001E00088B9429AEFEFF7E43197F1F700C00000C9
:1001F0004298E6E6FEE03197F1F70000409841981A
:1002000088B9429AEFEFF7E43197F1F700C00000A8
:100210004298E6E6FEE03197F1F7000040984198F9
:1002200088B9429A8FEF97E40197F1F700C0000078
:100230004298E6E6FEE03197F1F7000040984198D9
:1002400080E288B9429A8FEF97E40197F1F700C0F6
:1002500000004298089598B19F7098B998B1282FDE
:10026000207F922B98B940984198429AEFEFF7E49B
:100270003197F1F700C00000429898B19F7098B98B
:1002800098B18295807F892B88B940984198429A8D
:100290008FEF97E40197F1F700C0000042980895AE
:1002A0000E94E80086E69EE00197F1F7000088E2F0
:1002B0000E942B0181E00E942B0186E00E942B010D
:1002C0008EE00E942B0180E80E942B01089580E8B7
:1002D0000E942B010895823079F0833018F4813028
:1002E000C9F405C0833069F08430A1F40FC0862FB3
:1002F00081580E942B010895862F81540E942B0162
:100300000895862F8D560E942B010895862F8D52B9
:100310000E942B01089581E00E942B010895CF9344
:10032000C42F0E946B0188B18F7088B988B19C2F4F
:10033000907F892B88B9409A4198429A8FEF97E431
:100340000197F1F700C00000429888B18F7088B91A
:1003500088B1C295C07FC82BC8B9409A4198429ACB
:100360008FEF97E40197F1F700C000004298CF911A
:1003700008950F931F93CF93DF93D82FC62FFA01C1
:100380004081442369F08F010F5F1F4F8D2F6C2F29
:100390000E948F01CF5FF80141918F014423B1F793
:1003A000DF91CF911F910F910895EF92FF920F93DC
:1003B0001F93CF93DF93D82FC62F7A0189010E9414
:1003C0006B01FF205CF4F094E194F108F3948D2F1D
:1003D0006C2F40E052E00E94B901CF5FDD2311F0A5
:1003E000CC2319F40E94670104C08D2F6C2F0E944A
:1003F0006B010530110591F4C70160E177E20E94BD
:10040000A702AB01405D5F4F50930302409302028D
:100410008D2F6C2F0E948F01CF5F03C00430110518
:10042000E1F4C70168EE73E00E94A702CB0170936C
:100430000502609304026AE070E00E949302AC013E
:10044000405D5F4F50930D0240930C028D2F6C2F37
:100450000E948F01CF5F81E001C080E00330110571
:1004600011F08130D9F4C70164E670E00E94A70260
:10047000CB0170930502609304026AE070E00E9471
:100480009302AC01405D5F4F509309024093080214
:100490008D2F6C2F0E948F01CF5F81E002301105FC
:1004A00011F08130D9F42AE030E0C701B9010E948F
:1004B000A702CB017093050260930402B9010E9468
:1004C0009302AC01405D5F4F5093070240930602D8
:1004D0008D2F6C2F0E948F01CF5F81E001301105BD
:1004E00011F0813089F4C7016AE070E00E94A70230
:1004F000AC01405D5F4F50930B0240930A028D2F79
:100500006C2F0E948F01CF5F063011052CF08D2FCC
:100510006C2F45E40E948F01DF91CF911F910F91C5
:10052000FF90EF900895AA1BBB1B51E107C0AA1FC3
:10053000BB1FA617B70710F0A61BB70B881F991F84
:100540005A95A9F780959095BC01CD01089597FB28
:10055000092E07260AD077FD04D0E5DF06D000205B
:100560001AF4709561957F4F0895F6F790958195EF
:080570009F4F0895F894FFCF9E
:020578002D0054
:00000001FF
